S01200006C696E757873657269616C2E686578CA
S113000000300020550D0000C1110000CD1100008A
S1130010CD110000CD110000CD110000CD11000064
S1130020CD110000CD110000CD110000CD11000054
S1130030CD110000CD110000CD110000CD11000044
S1130040CD110000CD110000CD110000CD11000034
S1130050CD110000CD110000CD110000CD11000024
S113006041140000CD110000CD110000CD1100009D
S113007051110000CD110000CD110000CD11000080
S1130080CD110000CD110000CD110000CD110000F4
S1130090CD110000CD110000CD110000CD110000E4
S11300A0CD110000CD110000CD110000CD110000D4
S11300B0CD110000CD110000CD110000CD110000C4
S1130400FFFFFFFFFFFFFFFFFFFFFFFF7EFFFFFF79
S113041002B4714649084900095C49008E4402BC93
S11304207047C046002934D00123002210B488420A
S11304302CD301242407A14204D2814202D209010F
S11304401B01F8E7E400A14204D2814202D2490030
S11304505B00F8E7884201D3401A1A434C08A042D3
S113046002D3001B5C0822438C08A04202D3001B69
S11304709C082243CC08A04202D3001BDC08224380
S1130480002803D01B0901D00909E3E7101C10BCA4
S11304907047002801D00020C04307B4024802A1DD
S11304A04018029003BDC046D90000000029F0D0D6
S11304B003B5FFF7B9FF0EBC4243891A1847C0467B
S11304C0002941D010B4041C4C40A446012300224E
S11304D0002900D54942002800D5404288422CD347
S11304E001242407A14204D2814202D209011B0142
S11304F0F8E7E400A14204D2814202D249005B0041
S1130500F8E7884201D3401A1A434C08A04202D3A8
S1130510001B5C0822438C08A04202D3001B9C08E9
S11305202243CC08A04202D3001BDC08224300284B
S113053003D01B0901D00909E3E7101C6446002C11
S113054000D5404210BC7047002806D003DB0020D1
S1130550C043400801E08020000607B4024802A11D
S11305604018029003BDC046190000000029EBD0DA
S113057003B5FFF7A7FF0EBC4243891A1847C046CC
S11305807047C04680B582B000AF021C3960FB1DC5
S11305901A703B6800221A71C0463B681A68FB1D3A
S11305A0101C191C012200F00BFD031CF5D1C046E0
S11305B03B681B79DBB2002BFAD0BD4602B080BD8C
S11305C080B582B000AF7860396009E07B681A7842
S11305D07B6801337B603B68101C191CFFF7D2FF5A
S11305E07B681B78002BF1D1BD4602B080BDC046AC
S11305F080B500AF0F4B181C00F0C4FB021C0D4B60
S11306001A600C4B00221A710A4B00225A71094BD2
S1130610094A9A6001F08CFBC046064B1A68074BE6
S1130620101C191C012200F085FC031CF5D1BD46E9
S113063080BDC04604F0FF1FB91B000009F0FF1F76
S113064080B500AF154B00221A70154B00221A60BA
S1130650043300221A60043300221A600433002297
S11306601A6004330F4B00221A60043300221A600C
S1130670043300221A60043300221A6004330A4B44
S113068000221A60094B00221A60094B00221A60EA
S1130690084B00221A60BD4680BDC0460CF2FF1F05
S11306A0E4F0FF1FFCF1FF1FF4F0FF1FD4F0FF1F65
S11306B018F0FF1F1CF0FF1F80B500AF664B181C1D
S11306C000F0D8FA021C654B1A60654B181C00F048
S11306D0D1FA021C634B1A60634B1B78662B24D03F
S11306E06C2B00D196E0622B00D0A9E05F4B1A6816
S11306F05F4B101C191C00F07DFA5D4B181C01F0B7
S113070074FB031C1A1C5A4BD2185A4B111C1A1C8A
S11307100323081C111C1A1C01F03AFB544A564BC3
S1130720101C191CFFF74CFF91E0544A544B012054
S1130730111C032200F09AF9504B1B785AB24C4B0F
S1130740101C191C00F056FA4E4B4F4A111C1A1C6F
S11307500223081C111C1A1C01F01AFB444B4A4AC0
S1130760101C191C01F023FB474B181C01F03DFB26
S1130770031C1A1C444BD218424B111C1A1C022392
S1130780081C111C1A1C01F003FB3C4B5B785AB289
S1130790374B101C191C00F02DFA354B3A4A101C2B
S11307A0191C01F004FB384B181C01F01EFB031C40
S11307B01A1C354BD218334B111C1A1C0223081C6B
S11307C0111C1A1C01F0E4FA2C4B9B785AB2284BEA
S11307D0101C191C00F00EFA254B2B4A101C191C76
S11307E001F0E5FA284B181C01F0FFFA031C1A1C4F
S11307F0254BD218254B111C1A1C0423081C111C50
S11308001A1C01F0C5FA204A1B4B101C191CFFF7D7
S1130810D7FE1CE01E4B1B68002B05D101F0B6F976
S11308201B4B01221A6004E001F0B8F9184B0022B6
S11308301A60184A104B101C191CFFF7C1FE06E081
S1130840154A0D4B101C191CFFF7BAFEC0460023B5
S1130850181CBD4680BDC046E4F0FF1FF4F0FF1F26
S1130860FCF1FF1FD4F0FF1F0CF2FF1F00F0FF1F6D
S1130870D8F0FF1F442F000004F0FF1F24F0FF1FD7
S113088010F0FF1F482F0000F8F0FF1F4C2F00004E
S113089020F0FF1F542F0000582F000090B583B0A4
S11308A000AF0E4B181C00F029FF021C0B4B5A60C2
S11308B0FC1D0A4B2A2003211A1C00F029F9031CF1
S11308C02370FB1D1B78002B04D0044B5B68181CA1
S11308D000F0A4FFBD4603B090BDC04610F0FF1F5A
S11308E080B582B000AFFFF783FEFFF7D7FF00E0CB
S11308F0C04601F013FA031CFAD0FB1D181C01F0CA
S1130900B5F9FB1D1B780D2B17D12F4B1B68012B41
S113091005D12E4B1B682E4A0021D15408E02A4BE6
S11309201B68022B04D1294B1B682A4A0021D1548D
S1130930FFF7C2FEFFF784FEDAE7FB1D1B78202BCE
S113094017D1214B1B68002B03D11F4B01221A60C6
S113095038E01D4B1B68012B34D11C4B1B681C4A0F
S11309600021D154184B02221A60184B00221A603D
S113097028E0154B1B68002B04D1FB1D1A78164B7D
S11309801A70B5E7104B1B68012B0BD10F4B1B687A
S1130990FA1D11780E4AD1540C4B1B685A1C0B4B90
S11309A01A60A5E7084B1B68022BA1D1074B1B68F3
S11309B0FA1D1178074AD154044B1B685A1C034B87
S11309C01A6095E7C04693E718F0FF1F1CF0FF1F5D
S11309D0E4F0FF1FFCF1FF1F0CF2FF1F80B500AF16
S11309E0BD4680BD80B584B000AF78607B68FB6095
S11309F0FB689B68FA685279101C9847FB681A6870
S1130A00FB680533101C191C012200F093FABD4643
S1130A1004B080BD80B584B000AF78607B68FB60B3
S1130A20FB6801221A71BD4604B080BD80B584B054
S1130A3000AF78607B68FB60FB6801225A70BD469A
S1130A4004B080BD80B584B000AF78607B68FB6083
S1130A50FB6801221A70BD4604B080BD80B582B027
S1130A6000AF7860BD4602B080BDC04680B586B098
S1130A7000AFB9607B603B1C0F33011C19703B1C39
S1130A800C331A807B685A683B1C0F33101C191CEA
S1130A900122002300F0E2FE031C1A1C3B1C173346
S1130AA01A703B1C17331B78002B01D01B232AE040
S1130AB0C0467B685B78DBB2002BFAD07B680022EF
S1130AC05A707B6859683B1C0C331B88BA68081C35
S1130AD0111C1A1C012300F08DFF031C1A1C3B1C63
S1130AE017331A703B1C17331B78002B01D01B23C0
S1130AF009E0C0467B681B78DBB2002BFAD07B6828
S1130B0000221A700023181CBD4606B080BDC046E2
S1130B1080B584B000AF3A60FB1D021C1A70BB1D87
S1130B200A1C1A703B1C0C33FA1D12781A703B1CF9
S1130B300C33BA1D12785A703B685A683B1C0C334C
S1130B40101C191C0222012300F088FE031C1A1C2D
S1130B503B1C0F331A703B1C0F331B78002B01D046
S1130B601B2309E0C0463B685B78DBB2002BFAD05C
S1130B703B6800225A700023181CBD4604B080BD97
S1130B8080B500AF00F09CFBFFF7AAFEFEE7C0466D
S1130B9080B586B000AF786000237B617B68181C49
S1130BA001F023F9031C013B3B611BE07B697A687C
S1130BB0D2183B1C0F3312781A707B697A68D318E9
S1130BC03A6979688A1812781A703B697A68D31876
S1130BD03A1C0F3212781A707B6901337B613B69CE
S1130BE0013B3B617A693B699A42DFDBBD4606B053
S1130BF080BDC04690B585B000AF786039607B6831
S1130C00BB60BB68002B02DA7B685B427B6000231D
S1130C10FB60FB683A68D4187B68181C0A21FFF74C
S1130C20A5FC0B1CDBB23033DBB22370FB68013351
S1130C30FB607B68181C0A21FFF742FC031C7B60E5
S1130C407B68002BE5DCBB68002B07DAFB683A689D
S1130C50D3182D221A70FB680133FB60FB683A68D5
S1130C60D31800221A703B68181CFFF791FFBD4689
S1130C7005B090BD80B586B000AF786000237B617D
S1130C8000233B6102E07B6801337B607B681B7857
S1130C90202BF8D07B681B78092BF4D07B681B7859
S1130CA02D2B05D101233B617B6801337B6024E05C
S1130CB07B681B782B2B20D17B6801337B601CE085
S1130CC07B681B78164A101C191C01F07FF8031C62
S1130CD0FB60FB68002B16D0FA68114BD31ABB607B
S1130CE07A69131C9B009B185B001A1CBB68D31801
S1130CF07B617B6801337B6000E0C0467B681B78C6
S1130D00002BDDD100E0C0463B69002B02D07B699B
S1130D105B4200E07B69181CBD4606B080BDC0463E
S1130D20682F000080B582B000AF7860FEE7C0464F
S1130D3080B500AF054A064BD31A054A101C0021A2
S1130D401A1C01F02EF8BD4680BDC04610F2FF1FEC
S1130D5004F0FF1F02F0E6F800F03EFAFFF7E8FFA8
S1130D6002F0BCF802F056F802F0EAF8044B002056
S1130D70191CFFF705FF031C181C00F0EDFFC0460B
S1130D8028F0FF1F80B584B000AF78605E4BFB6035
S1130D90FB6800225A80FB6800221A81FB6800224B
S1130DA05A60FB6800225A81FB6800221A82FB68A1
S1130DB00022DA60FB687A685A61544BFA681A6058
S1130DC0534A5349534BCB588021C9001943514BC3
S1130DD0D150514B504A5268111C504A0A4080214C
S1130DE089000A435A604C4B4B4A9268111C4B4A87
S1130DF00A40802189000A439A60494A4849C3232A
S1130E009B00CB58FF21181C8843011CC3239B0063
S1130E10D150434B424A1268802149010A431A6067
S1130E20404B404AD278D2B208218A43D2B2DA7017
S1130E303C4B3C4AD278D2B204218A43D2B2DA7013
S1130E40FB6800221A80374B00229A70354B00222F
S1130E509A71344B00225A712D4A2D49324BCB588A
S1130E60191C324B0B408021C90419432E4BD1501D
S1130E702C4B2C4A1278D2B21F218A43D2B21A7058
S1130E80284B5B225A70274B264A927AD2B2D2B2AE
S1130E901F218A43D2B203210A43D2B2D2B29A7238
S1130EA0204B204AD27AD2B2D2B202210A43D2B221
S1130EB0D2B2DA721B4B1B4AD278D2B2D2B2082118
S1130EC00A43D2B2D2B2DA70164B164AD278D2B2F0
S1130ED0D2B204210A43D2B2D2B2DA70114B114A0F
S1130EE0D278D2B220210A43D2B2DA700D4B0D4A25
S1130EF09279D2B29A710E4BFA685A60FB68181C48
S1130F00BD4604B080BDC0462CF0FF1F44F0FF1F57
S1130F10007004403410000000900440FFF8FFFE0D
S1130F2000E100E000A0064004100000FFFFFFF312
S1130F306CF0FF1F80B586B000AFF860B960BB1DD0
S1130F401A80FB687B61BB1D1B88002B01D18423A5
S1130F502DE07B691B89002B01D0082327E0164B69
S1130F601B78DBB20133DBB2134A191C1170012B5D
S1130F7004D1124BEFF3108072B618707B69BA6813
S1130F805A607B69BA1D12881A817B6900225A80D3
S1130F90094B1B78DBB2013BDBB2074A191C117009
S1130FA0002B03D1054B187880F310880023181CFC
S1130FB0BD4606B080BDC04648F0FF1F0DF2FF1FBE
S1130FC080B586B000AFF860B960BB1D1A80FB68BD
S1130FD07B61BB1D1B88002B01D1842342E07B690C
S1130FE01B8A002B01D008233CE0204B1B78DBB28A
S1130FF00133DBB21D4A191C1170012B04D11C4BA7
S1131000EFF3108072B618707B69BA68DA607B6996
S1131010BA1D12881A827B6900225A817B691B8857
S1131020012213439AB27B691A80124B114AD27877
S1131030D2B2802149420A43D2B2DA700D4B0D4A32
S11310409279D2B29A71094B1B78DBB2013BDBB2C5
S1131050064A191C1170002B03D1054B187880F334
S113106010880023181CBD4606B080BD48F0FF1F41
S11310700DF2FF1F00A0064090B583B000AF78606A
S1131080124BDB79DBB21C1C7B681B89002B1AD04A
S11310907B685B68E2B21A705A1C7B685A607B6892
S11310A05B8801339AB27B685A807B685A887B6874
S11310B01B899A4207D17B6800221A817B685B698D
S11310C0181CFFF78FFCBD4603B090BD00A006407E
S11310D080B582B000AF78607B685A897B681B8AD0
S11310E09A421CD2194A7B68DB681978D1715A1C60
S11310F07B68DA607B685B8901339AB27B685A81CA
S11311007B685A897B681B8A9A421CD17B680022BF
S11311101A827B685B69181CFFF77CFC13E00B4B9D
S11311200A4AD278D1B27F220A40D2B2DA70074B8F
S1131130064A9279D2B29A717B681B880122934342
S11311409AB27B681A80BD4602B080BD00A00640FA
S113115090B583B000AF184B1B687B60174B1B79AD
S1131160DBB21C1C221C0F23134009D0134B0F228B
S11311701A71124BDB792023221C9A43131C9CB254
S1131180221C2023134003D07B68181CFFF774FF34
S11311907B681B881A1C01231340DBB2002B07D089
S11311A0221C8023134003D07B68181CFFF790FF98
S11311B0BD4603B090BDC04644F0FF1F00A00640EA
S11311C080B500AFFFF70AFCBD4680BD80B500AF17
S11311D0FFBEBD4680BDC04680B500AF2D4A2E4936
S11311E02E4BD1502E4A88235B010021D1502C4A2A
S11311F02B492C4BCB58C82189011943294BD15079
S1131200274A294B0021D150254A2549274BCB5841
S1131210191C274B1940254BD150214B204A1268E9
S1131220C02109030A431A601D4A1D491F4BCB58AC
S1131230191C204B0B408021490419431B4BD150EE
S11312401D4B06221A701C4B00225A701A4B1A4A64
S1131250D278D1B21F220A40D2B2DA70174B802260
S11312601A70154B00221A71134B00225A71C04692
S1131270114B9B79DBB21A1C10231340F8D0C046E3
S11312800D4B9B79DBB21A1C0C231340F8D1BD46DD
S113129080BDC04600E000E000000000080D000032
S11312A000700440381000004410000004100000D6
S11312B0FFFFFEFFFFFFFFFC00400640005006401A
S11312C080B500AF2E4B2E4A1269111C2D4A0A40DC
S11312D0E021C9000A431A612B4B2B4A5279D2B23E
S11312E01F218A43D2B25A71274B274A1279D2B2AC
S11312F007218A43D2B21A71244B244A1278D2B2FB
S1131300D2B273218A43D2B250210A43D2B2D2B2AA
S11313101A701E4B1D4A5278D2B2D2B263218A434C
S1131320D2B240210A43D2B2D2B25A70174B174AF2
S11313309278D2B219218A43D2B29A70144B002205
S11313401A700F4B0E4A126D111C0E4A0A40E0210E
S1131350C9000A431A650F4A0E49C1239B00CB58A2
S1131360191C0D4B1940C1239B00D150002000F0E3
S113137015F800F01BFC00F0DBFC62B6BD4680BD36
S113138000900440FFF8FFFE00F0074000D0074043
S113139000E0074000E100E0FFFF00FF80B584B0FB
S11313A000AF7860114BFB60FB687A681A60104BE1
S11313B00F4A126802218A431A600D4B0C4A526983
S11313C002210A435A610B4B0A4A5268111C0A4A09
S11313D00A40802149000A435A60084BFA681A609F
S11313E0FB68181CBD4604B080BDC0464CF0FF1F0E
S11313F0C0F00F4000C00440FFF8FFFE6CF0FF1F78
S113140080B582B000AF78603960044B396802223D
S11314100A409A60BD4602B080BDC046C0F00FF8D5
S113142080B582B000AF78603960044B396802221D
S11314300A405A60BD4602B080BDC046C0F00FF8F5
S113144090B583B000AFAB4B1B683B60BB1D002263
S11314501A80A94BDB78DCB2A74BA74AD278D2B268
S1131460D2B212218A43D1B2E2B20A43D2B2D2B288
S1131470DA70A14B9B78DBB21A1C2023134000D1F5
S113148001E19D4B9B78DBB21A1C1023134000D161
S1131490B8E0221C01231340DBB2002B2AD0964B68
S11314A0954A9278D2B220218A43D2B29A70924B52
S11314B0914A9278D2B210218A43D2B29A703B6890
S11314C000229A813B680022DA803B681B78012263
S11314D09343DAB23B681A703B681B7806221343C5
S11314E0DAB23B681A70BB1DBA1D128808210A4380
S11314F01A80EAE03B681B781A1C0223134000D1CF
S113150074E03B689B89002B0ED03B689B89013BB0
S11315109AB23B689A81784A3B681B6919781171C1
S11315205A1C3B681A61D0E03B68DB88002B3CD036
S11315303B681B781A1C042313401FD03B68DB88CC
S1131540012B08D16C4B6C4A9278D2B208210A4321
S1131550D2B29A7007E0684B674A9278D2B20821F7
S11315608A43D2B29A70644B634A9278D2B2102101
S11315708A43D2B29A70604B1B79A6E05E4B5E4AF6
S11315809278D2B204210A43D2B29A705A4B3A6882
S1131590527901210A43D2B21A713B681B780422A2
S11315A01343DAB23B681A708FE03B681B78012260
S11315B09343DAB23B681A703B685B78012B0FD116
S11315C04D4B4D4A9278D2B220218A43D2B29A70BE
S11315D0494B494A9278D2B210218A43D2B29A70C6
S11315E03B685B69181CFFF721FA6EE0424B3A68CE
S11315F012791A713B681B7802221343DAB23B68F2
S11316001A7062E03B68DB88013B9AB23B68DA807F
S11316103B68DB88002B0CD03B68DB88012B1FD197
S1131620354B354A9278D2B208210A43D2B29A7025
S113163016E03B681B7801229343DAB23B681A70C8
S11316402D4B2D4A9278D2B220218A43D2B29A707D
S1131650294B294A9278D2B208218A43D2B29A708D
S11316603B689B68244A1279D2B21A705A1C3B68B0
S11316709A603B68DB88002B27D13B685B69181CA8
S1131680FFF7E0F921E0221C102313401DD03B6832
S113169000229A813B680022DA803B6801225A705A
S11316A03B681B7801229343DAB23B681A70124BF1
S11316B0114A9278D2B210218A43D2B29A70BB1DD9
S11316C0BA1D128804210A431A80BB1D1B88002BF3
S11316D00CD03B685A88BB1D1B8813439AB23B68E5
S11316E05A803B685B69181CFFF7B8F9BD4603B024
S11316F090BDC04668F0FF1F0060064080B584B00E
S113170000AF78603C4BFB60FB687A685A613B4BE6
S1131710FA681A60FB6820221A70FB683A221A7170
S1131720FB6801225A70FB680022DA80FB68002201
S11317309A81FB6800225A80314A3149314BCB5897
S1131740402119432F4BD1502F4B00229A702E4B1E
S113175040229A712C4B0222DA702C4B2B4A526E87
S1131760111C2B4A0A40A021C9000A435A66274B80
S1131770264A126E111C264A0A40A021C9000A43B7
S11317801A66244A2349C2239B00CB58FF218B436A
S113179080211943C2239B00D1501E4B1D4A12685D
S11317A0802149000A431A60174B00225A71164BD4
S11317B000229A71144B08221A72134B00225A7099
S11317C0114B114A9278D2B2D2B2802149420A43D3
S11317D0D2B2D2B29A700C4B0B4A9278D2B2402158
S11317E00A43D2B29A700C4BFA689A60FB68181CD0
S11317F0BD4604B080BDC04650F0FF1F68F0FF1F17
S113180000700440341000000060064000D0044022
S1131810FFF8FFFE00E100E06CF0FF1F80B582B02E
S113182000AF7860094B00229A70094B00229A603D
S1131830084A0849084BCB584021181C8843011C0E
S1131840054BD150BD4602B080BDC0460060064085
S11318506CF0FF1F007004403410000080B586B0A7
S113186000AFF860B960111C1A1CBB1D19807B1DE8
S11318701A70FB687B61BB1D1B88002B01D1002300
S1131880AEE07B695B78012B14D1574BDB78DBB27C
S11318901A1C202313400BD17B691B781A1C0123CB
S11318A01340DBB2002B03D17B699B89002B0FD043
S11318B0082395E07B691B781A1C01231340DBB2D3
S11318C0002B03D17B699B89002B01D0082387E07F
S11318D0464B1B78DBB20133DBB2444A191C11704E
S11318E0012B04D1424BEFF3108072B618707B6960
S11318F01B7801221343DAB27B691A707B69BA68D8
S11319001A617B69BA1D12889A817B697A1D1278E3
S11319105A70354B344A9278D2B2D2B210210A436B
S1131920D2B2D2B29A70304B9B78DBB21A1C20230D
S1131930134008D02C4B2C4A9278D2B204210A438B
S1131940D2B29A7009E0284B274A9278D2B2D2B226
S113195020210A43D2B2D2B29A707B691B781A1C36
S1131960202313400BD07B691B7806221343DAB281
S11319707B691A701C4B7A6912791A7121E07B69B0
S11319801B781A1C102313400BD07B691B7806228A
S11319909343DAB27B691A70134B7A6952791A71DC
S11319A00FE07B691B781A1C0823134009D07B695C
S11319B01B7802221343DAB27B691A700A4B0022A5
S11319C01A710A4B1B78DBB2013BDBB2074A191CC4
S11319D01170002B03D1064B187880F31088002374
S11319E0181CBD4606B080BD0060064048F0FF1FCD
S11319F00DF2FF1F80B586B000AFF860B960111C0E
S1131A001A1CBB1D19807B1D1A70FB687B61BB1DF2
S1131A101B88002B01D10023AEE07B1D1B78002B1B
S1131A2001D18123A8E07B691B781A1C0823134089
S1131A3001D00923A0E07B695B78012B14D1504BC2
S1131A40DB78DBB21A1C202313400BD17B691B7893
S1131A501A1C01231340DBB2002B03D17B69DB8802
S1131A60002B0FD0082387E07B691B781A1C012305
S1131A701340DBB2002B03D17B69DB88002B01D040
S1131A80082379E03F4B1B78DBB20133DBB23D4ADC
S1131A90191C1170012B04D13B4BEFF3108072B66B
S1131AA018707B691B7801221343DAB27B691A70C0
S1131AB07B69BA689A607B69BA1D1288DA807B698F
S1131AC07A1D12785A702E4B2D4A9278D2B2D2B225
S1131AD010210A43D2B2D2B29A70294B9B78DBB25E
S1131AE01A1C2023134008D0254B254A9278D2B2E1
S1131AF004210A43D2B29A7009E0214B204A927819
S1131B00D2B2D2B220210A43D2B2D2B29A707B6945
S1131B101B781A1C202313400ED07B691B780622E5
S1131B201343DAB27B691A70154B7A691279012171
S1131B300A43D2B21A7110E07B691B781A1C102375
S1131B4013400AD07B691B7806229343DAB27B697F
S1131B501A700B4B7A6952791A710A4B1B78DBB2F3
S1131B60013BDBB2074A191C1170002B03D1064B51
S1131B70187880F310880023181CBD4606B080BD79
S1131B800060064048F0FF1F0DF2FF1F80B500AF54
S1131B9000200221FFF734FCBD4680BD80B500AFB4
S1131BA000200221FFF73CFCBD4680BD80B500AF9C
S1131BB0FFF7F4FFBD4680BD80B584B000AF021CC2
S1131BC0FB1D1A703B1C0F3300221A70224B1B782A
S1131BD0DBB20133DBB2204A191C1170012B04D192
S1131BE01E4BEFF3108072B618701D4B1B78402B00
S1131BF004D13B1C0F330B221A7018E0194B1B78CD
S1131C00194AF91D0978D154154B1B780133DAB2FE
S1131C10134B1A70134B1B780133DAB2114B1A7041
S1131C20104B1B78402B02D10E4B00221A700A4B2A
S1131C301B78DBB2013BDBB2074A191C1170002B85
S1131C4003D1064B187880F310883B1C0F331B78A4
S1131C50181CBD4604B080BD48F0FF1F0DF2FF1FE5
S1131C60BAF0FF1FB8F0FF1F78F0FF1F80B584B0F3
S1131C7000AF78603B1C0F3300221A70224B1B7894
S1131C80DBB20133DBB2204A191C1170012B04D1E1
S1131C901E4BEFF3108072B618701D4B1B78002B8F
S1131CA004D13B1C0F330A221A7018E0194B1B781D
S1131CB0194AD25C7B681A70154B1B78013BDAB267
S1131CC0134B1A70134B1B780133DAB2114B1A7091
S1131CD0104B1B78402B02D10E4B00221A700A4B7A
S1131CE01B78DBB2013BDBB2074A191C1170002BD5
S1131CF003D1064B187880F310883B1C0F331B78F4
S1131D00181CBD4604B080BD48F0FF1F0DF2FF1F34
S1131D10BAF0FF1FB9F0FF1F78F0FF1F80B500AFC6
S1131D20024B1B78181CBD4680BDC046BAF0FF1F8D
S1131D3080B500AF054B00221A70054B00221A70C3
S1131D40044B00221A70BD4680BDC046B8F0FF1F88
S1131D50B9F0FF1FBAF0FF1F38B5051C01F0D4F825
S1131D6001F07CF8084C2368002B02D0984700232C
S1131D702360064C2368002B02D09847002323607D
S1131D80281CFEF7CFFF38BDBCF0FF1FC0F0FF1FBB
S1131D9010B5002302E0CC5CC45401339342FAD161
S1131DA010BD10B5041C00F0E6FF201C10BD10B5DA
S1131DB0031C00E0231C1A785C1C002AFAD10A7860
S1131DC001311A700133002AF9D110BD00B5C9B22E
S1131DD002E08B4208D0101C0378421C002BF8D17F
S1131DE04B4259414942084000BD00B5031C1A1C2E
S1131DF00133591E09780029F9D1101A00BD0000D9
S1131E00F0B589B01D1C0EAB1B780C1C04930FABF2
S1131E101F78013C002301900391079202902370E4
S1131E20984217D1119A9A4214D1049B002B01D0E5
S1131E306F2F32D0692F02D0642F00D0AAE0022D78
S1131E4002D1039C023CA3E0012D00D0A2E0039C3C
S1131E50023C98E0692F0FD004D8582F19D0642F72
S1131E6021D109E0752F04D0782F12D06F2F1AD109
S1131E7015E0002500951BE0019A002A13DA80235F
S1131E801B069A4212D052420123019202920093FD
S1131E900EE00025009510260BE0119D00E00025C2
S1131EA00095082605E00021009101E0012200923E
S1131EB00A260023069301E006901C1C0298311C9C
S1131EC0FEF7F4FA02980591311CFEF7ABFA059976
S1131ED00290092902D80A1C303205E0059A3732EB
S1131EE0782F01D1059A573206980299631ED2B20F
S1131EF01A7001300029DFD1082E09D10499002974
S1131F0006D0302A04D00698A31E30221A7002305C
S1131F10079A022A10D10099002901D1002D02D07C
S1131F20109A013A109210991191102E04D1049A2A
S1131F30002A01D002391191039A0024D11A119A6E
S1131F408918164A914225DC302202E0013B1A70BE
S1131F50013011991C1C8842F8DB102E0AD1019A19
S1131F60002A07D0049B002B04D0631E1F70023C80
S1131F70302323700099002902D0013C2D2308E06E
S1131F80012D02D1013C2B2303E0022D02D1013C9F
S1131F9020232370201C09B0F0BDC046FD010000C1
S1131FA0F0B5AD4C0027A5441C1CAC4B0B916B4405
S1131FB020210A90197009920897EBE109982521CC
S1131FC0FFF704FF0490002810D10998FFF70DFFD4
S1131FD0089F021C3F18002800D1E4E10B980999DE
S1131FE00A9DA847002800D0DDE1DAE1049D0998A4
S1131FF02D1A079507D02A1C0B9809990A9DA84702
S1132000002800D1CDE1049845782B1C252D0AD158
S113201000260230012309900696321C311CB44676
S1132020371C0593A6E0049A0021012501320F1CF8
S113203005952B2B00D1BDE104DC202B08D0232BEC
S113204011D109E02D2B00D1B2E1302B0BD105E0E9
S1132050012F00D0B0E1B3E10121B1E1059D002DD4
S113206000D0ABE1ACE12A2B03D0002506950A266B
S113207012E0251D24680694002C03DA6042002334
S113208006900593501C53782C1C0AE0069B73435E
S11320905D190695537801321D1C303D101C092D25
S11320A0F4D96F4A069D954206DD00260130099059
S11320B0FF25321CB4465DE02E2B1CD143782A2B1D
S11320C004D0421C0A20002684460CE0266804340E
S11320D0F343DB0F9C46837802300EE063465E4395
S11320E05378761901321D1C303D101C092DF5D989
S11320F00125AC4601E00026B446682B00D162E11C
S113210003226C2B00D15FE10022DDB26E2B2FD0B5
S11321100ADC632B1BD002DC582B28D110E0642B83
S11321200ED0692B23D10BE0732B13D004DC6F2B5F
S113213006D0702B1BD110E0752B01D0782B16D153
S11321406346002B0ED0059B022B11D10CE0634695
S1132150002B0CD1002A0AD10AE078250826032294
S1132160012105E0012603E00123059300E0FF259A
S1132170013009900898079BC01808906E2D75D0FF
S113218010D8632D00D184E006D8252D00D186E037
S1132190582D00D089E022E0642D0FD0692D00D0A5
S11321A083E00BE0732D36D003D86F2D00D07CE094
S11321B015E0752D13D0782D77D110E0231D0793EA
S11321C02068032A06D0022A01D100B202E0012AC3
S11321D000D140B200910699019502910FE0231DB0
S11321E007932068032A06D0022A01D180B202E0B4
S11321F0012A00D1C0B2069A0091019502928DA9DC
S1132200059A3B1C0396FFF7FBFD041E4DD0154FAA
S11322106F443F1B59E0231D24680793002C00D111
S1132220114C002907D060462778013400284CD08F
S1132230B74249DC49E06246201C002A07D0321C20
S113224000F0DBFD371C00283FD0071B3DE0FFF703
S1132250CCFD071C39E0C046C4FDFFFF3602000078
S1132260FD01000033020000742F0000251D0795B6
S11322702368022A05D0032A08D0002A00D088E067
S113228004E068462021085A188082E0089D1D60F9
S11322907FE02268201D0DAB07901A7002E00DABA1
S11322A01D7007941C1C01270FE00498FFF79DFD87
S11322B0089F041E06D00B980499221C0A9DA84767
S11322C000286ED03F196EE0371C05983E1C00288C
S11322D03FD03023022800D020233D4A6A441370A3
S11322E022782D2A04D02B2A02D00497202A0CD13C
S11322F00497302B09D10B98211C01220A9B984783
S113230000284ED0781E013404900599022911D179
S1132310412D01D0612D0DD1049D012D41DD0B987E
S1132320211C02220A9DA84700283AD0049D0234A9
S1132330023D04953E1C08E025490B98694401229E
S11323400A9DA84700282CD00136069DAE42F3DB37
S1132350049F002F06D00B98211C3A1C0A9DA84705
S113236000281ED0059D002D10D109E025700B9882
S1132370211C01220A9B9847002812D0013602E052
S1132380144C20256C4406988642EFDB089DAD1959
S11323900895079C099D2B78002B00D00EE6089F1A
S11323A001E001277F42381C8F239B009D44F0BD30
S11323B0002504E0012703E0022701E0022505953A
S11323C05378013235E60222437801309DE6C04657
S11323D03602000037020000F0B5ADB01193329B15
S11323E007904F2000240A9268445A1E93410F1C00
S11323F00F940C9409940D940B94261C037072E3AF
S1132400069800F0B9FB051E20D00A9D01352878F6
S11324100A9500F0B1FB0028F7D1002C00D061E34D
S113242000E001360021079D381C0A1CA847051C42
S113243000F0A2FB0028F4D1681C04D1329C002CCB
S113244000D15CE30124381C291C24E30699604272
S11324506041129025291CD000281AD0291C079C01
S1132460381C2A1CA047069CC1B2A1420BD0381CC0
S11324700122079DA847329C002C00D13FE30A9D0E
S113248001350A952EE30A9C013601340A942C1C6A
S113249029E31FAD0021281C2822FFF782FC0A999A
S11324A0B148497868600691081C252913D115A8FC
S11324B0E970021C0BCD0BC20BCD0BC20BCD0BC2B2
S11324C0296811600A9D02350A95002510950E951C
S11324D0A54D08951DE12A2903D00A9D01350595CE
S11324E006E001232B700A9D023505950A9DA87804
S11324F0021C303A092A36D800210891A4460A2140
S11325000025059B00E0131C4D4330382D185878E6
S11325105A1C041C303C092CF5D905931FAB6446A6
S113252008959C462095002D19D101256D4215A8CA
S1132530DD700690021C191C29C929C229C929C2A7
S113254029C929C209681160059D614602350A78C6
S11325500A95FF250695089D0E951095CEE001235A
S113256061464B7005921FAA682802D06C280FD1CF
S11325700BE0059B022191705978682900D0E5E2AF
S113258001215B1891700593E0E203219170DDE273
S11325901FAAD0705838202800D993E0FDF738FFDF
S11325A09492922D929292929292921594929292E5
S11325B092949292929294941192921992949292E9
S11325C094000321917078217DE0917800297BD0DB
S11325D078E09178002901D0FF21D170059B002279
S11325E01FA9FF208D1801322872202AFAD1C12296
S11325F04A72FE2205930A7366E09178002901D09D
S1132600FF21D170059D6A785E2A04D0013500202F
S11326100595069005E0059901238A780231059114
S113262006935D2A33D11FAAD17C059D2020014346
S1132630D1746A780135059529E0D4B2E1081FA860
S1132640072541182C400120A040041C087A20438F
S1132650087258782D2817D19978002914D05D294B
S11326600CD111E0D5B2E8081FAC2018072425408E
S11326700124AC40251C047A2C43047201328A42A2
S1132680F0DDDA78033304E00133021C01E0059B3A
S1132690A4465D2A01D0002ACFD164460593002ABE
S11326A002D1FF211FAA0EE0069D002D0CD0059B30
S11326B029A921AA1078C043107001328A42F9D1A5
S11326C0059301E0FF21D1701FA915A8021C081C65
S11326D08C462AC82AC22AC82AC22AC82AC2006822
S11326E0634610605D781A7810959D780E95DD78B4
S11326F006955D680895059D01350A950025AA4251
S113270008D1069D252D04D0119805680430119038
S113271000E0002506996E290ED0129A002A0BD0EB
S1132720079C381C00210222A047041E04D0329CBE
S1132730002C00D1E3E10124069869282DD015D896
S11327405B2800D12BE106D8252800D1EBE05828DE
S113275000D0D4E14EE00699632900D188E06429D1
S113276000D0CCE117E0C046FFFFFF7F069A732A32
S113277000D1F9E006D86E2A00D19DE16F2A00D07D
S1132780BDE106E0069B752B36D0782B00D0B6E170
S113279030E0082031E00A2000E00020002C20D1A5
S11327A029AB00932AAB01932BAB029308993B1CF2
S11327B0079A00F0F8F9299B002B05D1329C002CD4
S11327C000D197E101240EE080210906F618431890
S11327D0002B04D02A9B002B01D0434203E0031CAE
S11327E001E001240023002D3ED00E9A101C032A80
S11327F02CD934E0102000E00A20002C1FD129AB92
S113280000932AAB01932BAB0293079A3B1C0899C4
S113281000F0C9F9299A031C002A06D1329C002C25
S113282000D16AE10124131C0BE0B6182A9A002A8D
S113283007D080221206904203D0434201E00124D3
S11328400023002D10D00E98032808D8FDF7E0FDD2
S1132850060204062B7002E02B8000E02B600B9D27
S113286063426341ED180B950D9D01350D9578E09C
S11328701098002801D101210891002D3DD000239A
S113288029939C4200D02DE1099804E02870299BEB
S1132890013501332993089A002A16D0329B002B64
S11328A004D0299B002B0CDA01200F9000210A1C74
S11328B0381C079B9847089901390891421CE5D1B7
S11328C003E0002509900F9500E00990299B002B57
S11328D009D00F9D002D0BD14F2068440278002AA7
S11328E000D0F8E004E0329C002C00D107E1F9E0CC
S11328F00B9DF61801350B95DAE02995089D02E049
S1132900299B01332993002D08D00021381C0A1C6F
S1132910079B9847013D09900130F1D1299B002B79
S113292000D0C5E0EBE0002C00D0D8E000E0013698
S11329300021079D381C0A1CA847051C00F01CF93F
S11329400028F4D1252D0BD0291C079C381C01220A
S1132950A047329D01240C94002D00D1CFE0C2E0A9
S1132960013601250C95BEE001200C90002C16D1F7
S1132970381C211C221C03E000210136381C0A1CCF
S1132980079B98470690069800F0F6F80028F3D1C4
S1132990381C06990122079B984701200C90002DB2
S11329A054D0002329939C4200D09BE008990998B5
S11329B00139069114E0069AC3B2013A069207223D
S11329C01A40012191408C4615AAD9085118097A58
S11329D0624611421DD02B70299B01350133299386
S11329E0069B191C0893013113D0329A002A04D093
S11329F0299B002B09DC01230F9300210A1C381C9E
S1132A00079B9847411CD6D103E0002209900F92FE
S1132A1000E0099009AB1978299B002B07D00F9887
S1132A2000280CD14F2068440278002A07D0381CB3
S1132A300122079CA047329D002D60D052E0F61879
S1132A4000232B700B9D01350B952AE02995089DD9
S1132A500998013D0FE0C3B207221A4001219140B9
S1132A600A1CDB0815A9CB181B7A013D13420CD0B4
S1132A70299B0133299308956A1C06D000210A1C5E
S1132A80381C079B9847411CE5D1299B0990002BD2
S1132A9005D10999381C0122079DA84723E009990B
S1132AA0F618089D002D03DB381C0122079DA8475A
S1132AB00D9D01350D9516E0002D14D00E980328B8
S1132AC011D8FDF7A5FC040602042E800BE02E604D
S1132AD009E02E7007E0002501240F9503E001248E
S1132AE00C9400E001240A9D2D780695002D00D059
S1132AF086E404E001240C9401E001250C95381CC3
S1132B0000210222079DA847002802D00D9C002C1A
S1132B1016D00C9D002D16D00D9C002C13D1002135
S1132B200A1C381C079DA8470021041C0222381CDB
S1132B30A847002804D1381C211C0122A84702E020
S1132B4001235B420B930B982DB0F0BD0599487897
S1132B50013105911CE5C04600B58022031C5200DA
S1132B600020934204D8034AD3185878012318400C
S1132B7000BDC046752F000000B58022031C520022
S1132B800020934204D8034AD318587810231840DD
S1132B9000BDC046752F000000B5031C613B192B16
S1132BA000D8203800BDF0B589B0059101920F9985
S1132BB0109A029300230B60061C1360012811D0A5
S1132BC098420FDB059A059B013A1A43D20F09D1AB
S1132BD0242807DC0298111C019B98470127041C38
S1132BE03D1C02E00024271C40250496002E05D03D
S1132BF001204042311CFDF715FC0490059A002188
S1132C00D21703910691079293E0681E0F2800D90A
S1132C108FE0FDF7FDFB082E8E3F8E8E8E518E8E3B
S1132C208E8E8E8E8E51201CFFF7A6FF021E09D0B9
S1132C3000210A1C0298019B98470699041C013143
S1132C40069176E02B2C07D10298111C019B984722
S1132C500137041C02256CE002252D2C69D1111CBE
S1132C60019B029898470F9901230137041C0B60BC
S1132C705FE0102E02D00825002E5AD10825302CF2
S1132C8057D1002102980A1C019B98470137041C64
S1132C9004254EE0782C01D0582C09D1002102984B
S1132CA00A1C019B98470137041C0825102640E0A4
S1132CB01025002E3AD03CE0002E00D10A260499BB
S1132CC0002905D101204042311CFDF7ABFB0490E3
S1132CD0201C3038092808D9201CFFF73DFF0028A4
S1132CE005D0201CFFF758FF3738B04203DB102D06
S1132CF01ED120251DE0039A049901238A4201D89C
S1132D00109A1368039AC4B27243D1438C4200D917
S1132D100123109982180B600021039202980A1C67
S1132D20019B98470137041C102502E0082600E0A7
S1132D304025611C0BD0079A0599FB0FB9425341FA
S1132D40DBB2002B03D060231D4200D15DE73423A6
S1132D501D4003D10E9A0395156004E0069B013FC4
S1132D600E99FF180F600298211C0122019B9847BD
S1132D70039809B0F0BD30B5C9B2031C1F2A35D978
S1132D80444203232340041C002B07D0D21A1D1CE9
S1132D90013D21700134002DFAD1C418002905D059
S1132DA00D06080428430B02014319435009231C50
S1132DB000280ED0051C013D196059609960D96046
S1132DC0196159619961D9612033002DF3D143010F
S1132DD0E318D006400F07D0041C1D1C013C02C59B
S1132DE0002CFBD180001B1803200240002A03D0D2
S1132DF01970013A0133F9E730BD10B5C9B2821830
S1132E0004E00478431C8C4203D0181C9042F8D18F
S1132E10002010BD38B50B4C0B4D01E008CC984791
S1132E20AC42FBD1094C0A4D01E008CC9847AC42B6
S1132E30FBD1084C084D01E008CC9847AC42FBD1CB
S1132E4038BDC0467830000078300000783000008B
S1132E5078300000783000007830000038B5084C35
S1132E60084D01E008CC9847AC42FBD1064C074D15
S1132E7002E0043C23689847AC42FAD138BDC0460E
S1132E80783000007830000078300000783000009E
S1132E9030B5002A20D088421ED0032401232142C9
S1132EA007D1204205D1944203D220C9043A20C05C
S1132EB010E0194209D1184207D1934205D20D8876
S1132EC0023A05800231023004E00D78013A0570BF
S1132ED001310130002AE2D130BD000010B5094CA7
S1132EE0002C0ED004E06068A268FFF7D1FF0C3418
S1132EF021680029F7D16368002BF4D1A368002B63
S1132F00F1D110BD7C30000010B5054B1C6803E006
S1132F10A068636898472468002CF9D110BDC046A6
S1132F20D0F0FF1F054B181C002805D0854681B042
S1132F300020C043009001B0F746704700300020E5
S1132F40F74670470A0D000023000000230A0D0015
S1132F50000000004F4B0000496E76616C696420EC
S1132F60436F6D6D616E6400303132333435363702
S1132F7038390000000080808080808080808090CC
S1132F8090909090808080808080808080808080FD
S1132F9080808080808018040404040404040404F1
S1132FA004040404040402020202020202020202F1
S1132FB0040404040404044343434343434141419C
S1132FC041414141414141414141414141414141ED
S1132FD0410404040404042323232323232121215F
S1132FE021212121212121212121212121212121CD
S1132FF0210404040480000000000000000000001C
S113300000000000000000000000000000000000BC
S113301000000000000000000000000000000000AC
S1133020000000000000000000000000000000009C
S1133030000000000000000000000000000000008C
S1133040000000000000000000000000000000007C
S1133050000000000000000000000000000000006C
S1133060000000000000000000000000000000005C
S10B3070000000000000000054
S107307800E100006F
S113307C7830000000F0FF1F040000000000000086
S10B308C000000000000000038
S9030D559A
